{
	"contracts/DonationBox.sol": {
		"DonationBox": {
			"abi": [
				{
					"inputs": [],
					"stateMutability": "nonpayable",
					"type": "constructor"
				},
				{
					"inputs": [],
					"name": "admin",
					"outputs": [
						{
							"internalType": "address",
							"name": "",
							"type": "address"
						}
					],
					"stateMutability": "view",
					"type": "function"
				},
				{
					"inputs": [],
					"name": "donate",
					"outputs": [],
					"stateMutability": "payable",
					"type": "function"
				},
				{
					"inputs": [
						{
							"internalType": "address",
							"name": "",
							"type": "address"
						}
					],
					"name": "donations",
					"outputs": [
						{
							"internalType": "address",
							"name": "donor",
							"type": "address"
						},
						{
							"internalType": "uint256",
							"name": "amount",
							"type": "uint256"
						},
						{
							"internalType": "uint256",
							"name": "donationDate",
							"type": "uint256"
						}
					],
					"stateMutability": "view",
					"type": "function"
				},
				{
					"inputs": [],
					"name": "getDonor",
					"outputs": [
						{
							"components": [
								{
									"internalType": "address",
									"name": "donor",
									"type": "address"
								},
								{
									"internalType": "uint256",
									"name": "amount",
									"type": "uint256"
								},
								{
									"internalType": "uint256",
									"name": "donationDate",
									"type": "uint256"
								}
							],
							"internalType": "struct DonationBox.Donation",
							"name": "",
							"type": "tuple"
						}
					],
					"stateMutability": "view",
					"type": "function"
				},
				{
					"inputs": [],
					"name": "totalDonations",
					"outputs": [
						{
							"internalType": "uint256",
							"name": "",
							"type": "uint256"
						}
					],
					"stateMutability": "view",
					"type": "function"
				},
				{
					"inputs": [],
					"name": "withdraw",
					"outputs": [],
					"stateMutability": "nonpayable",
					"type": "function"
				}
			],
			"devdoc": {
				"kind": "dev",
				"methods": {},
				"version": 1
			},
			"evm": {
				"assembly": "    /* \"contracts/DonationBox.sol\":58:1325  contract DonationBox {... */\n  mstore(0x40, 0xa0)\n    /* \"contracts/DonationBox.sol\":229:278  constructor() {... */\n  callvalue\n  dup1\n  iszero\n  tag_1\n  jumpi\n  revert(0x00, 0x00)\ntag_1:\n  pop\n    /* \"contracts/DonationBox.sol\":261:271  msg.sender */\n  caller\n    /* \"contracts/DonationBox.sol\":253:271  admin = msg.sender */\n  0xffffffffffffffffffffffffffffffffffffffff\n  and\n  0x80\n  dup2\n  0xffffffffffffffffffffffffffffffffffffffff\n  and\n  dup2\n  mstore\n  pop\n  pop\n    /* \"contracts/DonationBox.sol\":58:1325  contract DonationBox {... */\n  mload(0x80)\n  codecopy(0x00, dataOffset(sub_0), dataSize(sub_0))\n  0x00\n  assignImmutable(\"0x2a80e1ef1d7842f27f2e6be0972bb708b9a135c38860dbe73c27c3486c34f4de\")\n  return(0x00, dataSize(sub_0))\nstop\n\nsub_0: assembly {\n        /* \"contracts/DonationBox.sol\":58:1325  contract DonationBox {... */\n      mstore(0x40, 0x80)\n      jumpi(tag_1, lt(calldatasize, 0x04))\n      shr(0xe0, calldataload(0x00))\n      dup1\n      0x3ccfd60b\n      eq\n      tag_2\n      jumpi\n      dup1\n      0xcc6cb19a\n      eq\n      tag_3\n      jumpi\n      dup1\n      0xde2ed893\n      eq\n      tag_4\n      jumpi\n      dup1\n      0xe0218fb3\n      eq\n      tag_5\n      jumpi\n      dup1\n      0xed88c68e\n      eq\n      tag_6\n      jumpi\n      dup1\n      0xf851a440\n      eq\n      tag_7\n      jumpi\n    tag_1:\n      revert(0x00, 0x00)\n        /* \"contracts/DonationBox.sol\":1131:1318  function withdraw() public{... */\n    tag_2:\n      callvalue\n      dup1\n      iszero\n      tag_8\n      jumpi\n      revert(0x00, 0x00)\n    tag_8:\n      pop\n      tag_9\n      tag_10\n      jump\t// in\n    tag_9:\n      stop\n        /* \"contracts/DonationBox.sol\":285:330  mapping(address => Donation) public donations */\n    tag_3:\n      callvalue\n      dup1\n      iszero\n      tag_11\n      jumpi\n      revert(0x00, 0x00)\n    tag_11:\n      pop\n      tag_12\n      0x04\n      dup1\n      calldatasize\n      sub\n      dup2\n      add\n      swap1\n      tag_13\n      swap2\n      swap1\n      tag_14\n      jump\t// in\n    tag_13:\n      tag_15\n      jump\t// in\n    tag_12:\n      mload(0x40)\n      tag_16\n      swap4\n      swap3\n      swap2\n      swap1\n      tag_17\n      jump\t// in\n    tag_16:\n      mload(0x40)\n      dup1\n      swap2\n      sub\n      swap1\n      return\n        /* \"contracts/DonationBox.sol\":336:362  uint public totalDonations */\n    tag_4:\n      callvalue\n      dup1\n      iszero\n      tag_18\n      jumpi\n      revert(0x00, 0x00)\n    tag_18:\n      pop\n      tag_19\n      tag_20\n      jump\t// in\n    tag_19:\n      mload(0x40)\n      tag_21\n      swap2\n      swap1\n      tag_22\n      jump\t// in\n    tag_21:\n      mload(0x40)\n      dup1\n      swap2\n      sub\n      swap1\n      return\n        /* \"contracts/DonationBox.sol\":1021:1125  function getDonor() public view returns (Donation memory) {... */\n    tag_5:\n      callvalue\n      dup1\n      iszero\n      tag_23\n      jumpi\n      revert(0x00, 0x00)\n    tag_23:\n      pop\n      tag_24\n      tag_25\n      jump\t// in\n    tag_24:\n      mload(0x40)\n      tag_26\n      swap2\n      swap1\n      tag_27\n      jump\t// in\n    tag_26:\n      mload(0x40)\n      dup1\n      swap2\n      sub\n      swap1\n      return\n        /* \"contracts/DonationBox.sol\":625:1015  function donate () public payable {... */\n    tag_6:\n      tag_28\n      tag_29\n      jump\t// in\n    tag_28:\n      stop\n        /* \"contracts/DonationBox.sol\":85:115  address public immutable admin */\n    tag_7:\n      callvalue\n      dup1\n      iszero\n      tag_30\n      jumpi\n      revert(0x00, 0x00)\n    tag_30:\n      pop\n      tag_31\n      tag_32\n      jump\t// in\n    tag_31:\n      mload(0x40)\n      tag_33\n      swap2\n      swap1\n      tag_34\n      jump\t// in\n    tag_33:\n      mload(0x40)\n      dup1\n      swap2\n      sub\n      swap1\n      return\n        /* \"contracts/DonationBox.sol\":1131:1318  function withdraw() public{... */\n    tag_10:\n        /* \"contracts/DonationBox.sol\":1189:1194  admin */\n      immutable(\"0x2a80e1ef1d7842f27f2e6be0972bb708b9a135c38860dbe73c27c3486c34f4de\")\n        /* \"contracts/DonationBox.sol\":1175:1194  msg.sender == admin */\n      0xffffffffffffffffffffffffffffffffffffffff\n      and\n        /* \"contracts/DonationBox.sol\":1175:1185  msg.sender */\n      caller\n        /* \"contracts/DonationBox.sol\":1175:1194  msg.sender == admin */\n      0xffffffffffffffffffffffffffffffffffffffff\n      and\n      eq\n        /* \"contracts/DonationBox.sol\":1167:1222  require(msg.sender == admin, \"Only admin can withdraw\") */\n      tag_36\n      jumpi\n      mload(0x40)\n      0x08c379a000000000000000000000000000000000000000000000000000000000\n      dup2\n      mstore\n      0x04\n      add\n      tag_37\n      swap1\n      tag_38\n      jump\t// in\n    tag_37:\n      mload(0x40)\n      dup1\n      swap2\n      sub\n      swap1\n      revert\n    tag_36:\n        /* \"contracts/DonationBox.sol\":1232:1246  uint256 amount */\n      0x00\n        /* \"contracts/DonationBox.sol\":1249:1270  address(this).balance */\n      selfbalance\n        /* \"contracts/DonationBox.sol\":1232:1270  uint256 amount = address(this).balance */\n      swap1\n      pop\n        /* \"contracts/DonationBox.sol\":1288:1293  admin */\n      immutable(\"0x2a80e1ef1d7842f27f2e6be0972bb708b9a135c38860dbe73c27c3486c34f4de\")\n        /* \"contracts/DonationBox.sol\":1280:1303  payable(admin).transfer */\n      0xffffffffffffffffffffffffffffffffffffffff\n      and\n        /* \"contracts/DonationBox.sol\":1280:1311  payable(admin).transfer(amount) */\n      0x08fc\n        /* \"contracts/DonationBox.sol\":1304:1310  amount */\n      dup3\n        /* \"contracts/DonationBox.sol\":1280:1311  payable(admin).transfer(amount) */\n      swap1\n      dup2\n      iszero\n      mul\n      swap1\n      mload(0x40)\n      0x00\n      mload(0x40)\n      dup1\n      dup4\n      sub\n      dup2\n      dup6\n      dup9\n      dup9\n      call\n      swap4\n      pop\n      pop\n      pop\n      pop\n      iszero\n      dup1\n      iszero\n      tag_40\n      jumpi\n      returndatacopy(0x00, 0x00, returndatasize)\n      revert(0x00, returndatasize)\n    tag_40:\n      pop\n        /* \"contracts/DonationBox.sol\":1157:1318  {... */\n      pop\n        /* \"contracts/DonationBox.sol\":1131:1318  function withdraw() public{... */\n      jump\t// out\n        /* \"contracts/DonationBox.sol\":285:330  mapping(address => Donation) public donations */\n    tag_15:\n      mstore(0x20, 0x00)\n      dup1\n      0x00\n      mstore\n      keccak256(0x00, 0x40)\n      0x00\n      swap2\n      pop\n      swap1\n      pop\n      dup1\n      0x00\n      add\n      0x00\n      swap1\n      sload\n      swap1\n      0x0100\n      exp\n      swap1\n      div\n      0xffffffffffffffffffffffffffffffffffffffff\n      and\n      swap1\n      dup1\n      0x01\n      add\n      sload\n      swap1\n      dup1\n      0x02\n      add\n      sload\n      swap1\n      pop\n      dup4\n      jump\t// out\n        /* \"contracts/DonationBox.sol\":336:362  uint public totalDonations */\n    tag_20:\n      sload(0x01)\n      dup2\n      jump\t// out\n        /* \"contracts/DonationBox.sol\":1021:1125  function getDonor() public view returns (Donation memory) {... */\n    tag_25:\n        /* \"contracts/DonationBox.sol\":1062:1077  Donation memory */\n      tag_41\n      tag_42\n      jump\t// in\n    tag_41:\n        /* \"contracts/DonationBox.sol\":1097:1106  donations */\n      0x00\n        /* \"contracts/DonationBox.sol\":1097:1118  donations[msg.sender] */\n      0x00\n        /* \"contracts/DonationBox.sol\":1107:1117  msg.sender */\n      caller\n        /* \"contracts/DonationBox.sol\":1097:1118  donations[msg.sender] */\n      0xffffffffffffffffffffffffffffffffffffffff\n      and\n      0xffffffffffffffffffffffffffffffffffffffff\n      and\n      dup2\n      mstore\n      0x20\n      add\n      swap1\n      dup2\n      mstore\n      0x20\n      add\n      0x00\n      keccak256\n        /* \"contracts/DonationBox.sol\":1089:1118  return  donations[msg.sender] */\n      mload(0x40)\n      dup1\n      0x60\n      add\n      0x40\n      mstore\n      swap1\n      dup2\n      0x00\n      dup3\n      add\n      0x00\n      swap1\n      sload\n      swap1\n      0x0100\n      exp\n      swap1\n      div\n      0xffffffffffffffffffffffffffffffffffffffff\n      and\n      0xffffffffffffffffffffffffffffffffffffffff\n      and\n      0xffffffffffffffffffffffffffffffffffffffff\n      and\n      dup2\n      mstore\n      0x20\n      add\n      0x01\n      dup3\n      add\n      sload\n      dup2\n      mstore\n      0x20\n      add\n      0x02\n      dup3\n      add\n      sload\n      dup2\n      mstore\n      pop\n      pop\n      swap1\n      pop\n        /* \"contracts/DonationBox.sol\":1021:1125  function getDonor() public view returns (Donation memory) {... */\n      swap1\n      jump\t// out\n        /* \"contracts/DonationBox.sol\":625:1015  function donate () public payable {... */\n    tag_29:\n        /* \"contracts/DonationBox.sol\":689:690  0 */\n      0x00\n        /* \"contracts/DonationBox.sol\":677:686  msg.value */\n      callvalue\n        /* \"contracts/DonationBox.sol\":677:690  msg.value > 0 */\n      gt\n        /* \"contracts/DonationBox.sol\":669:733  require(msg.value > 0, \"Donation amount must be greater than 0\") */\n      tag_45\n      jumpi\n      mload(0x40)\n      0x08c379a000000000000000000000000000000000000000000000000000000000\n      dup2\n      mstore\n      0x04\n      add\n      tag_46\n      swap1\n      tag_47\n      jump\t// in\n    tag_46:\n      mload(0x40)\n      dup1\n      swap2\n      sub\n      swap1\n      revert\n    tag_45:\n        /* \"contracts/DonationBox.sol\":760:770  msg.sender */\n      caller\n        /* \"contracts/DonationBox.sol\":751:770  admin != msg.sender */\n      0xffffffffffffffffffffffffffffffffffffffff\n      and\n        /* \"contracts/DonationBox.sol\":751:756  admin */\n      immutable(\"0x2a80e1ef1d7842f27f2e6be0972bb708b9a135c38860dbe73c27c3486c34f4de\")\n        /* \"contracts/DonationBox.sol\":751:770  admin != msg.sender */\n      0xffffffffffffffffffffffffffffffffffffffff\n      and\n      sub\n        /* \"contracts/DonationBox.sol\":743:794  require(admin != msg.sender, \"Admin cannot donate\") */\n      tag_48\n      jumpi\n      mload(0x40)\n      0x08c379a000000000000000000000000000000000000000000000000000000000\n      dup2\n      mstore\n      0x04\n      add\n      tag_49\n      swap1\n      tag_50\n      jump\t// in\n    tag_49:\n      mload(0x40)\n      dup1\n      swap2\n      sub\n      swap1\n      revert\n    tag_48:\n        /* \"contracts/DonationBox.sol\":804:828  Donation memory donation */\n      0x00\n        /* \"contracts/DonationBox.sol\":831:842  _getDonor() */\n      tag_51\n        /* \"contracts/DonationBox.sol\":831:840  _getDonor */\n      tag_52\n        /* \"contracts/DonationBox.sol\":831:842  _getDonor() */\n      jump\t// in\n    tag_51:\n        /* \"contracts/DonationBox.sol\":804:842  Donation memory donation = _getDonor() */\n      swap1\n      pop\n        /* \"contracts/DonationBox.sol\":871:880  msg.value */\n      callvalue\n        /* \"contracts/DonationBox.sol\":852:860  donation */\n      dup2\n        /* \"contracts/DonationBox.sol\":852:867  donation.amount */\n      0x20\n      add\n        /* \"contracts/DonationBox.sol\":852:880  donation.amount += msg.value */\n      dup2\n      dup2\n      mload\n      tag_53\n      swap2\n      swap1\n      tag_54\n      jump\t// in\n    tag_53:\n      swap2\n      pop\n      dup2\n      dup2\n      mstore\n      pop\n      pop\n        /* \"contracts/DonationBox.sol\":914:929  block.timestamp */\n      timestamp\n        /* \"contracts/DonationBox.sol\":890:898  donation */\n      dup2\n        /* \"contracts/DonationBox.sol\":890:911  donation.donationDate */\n      0x40\n      add\n        /* \"contracts/DonationBox.sol\":890:929  donation.donationDate = block.timestamp */\n      dup2\n      dup2\n      mstore\n      pop\n      pop\n        /* \"contracts/DonationBox.sol\":957:966  msg.value */\n      callvalue\n        /* \"contracts/DonationBox.sol\":939:953  totalDonations */\n      0x01\n      0x00\n        /* \"contracts/DonationBox.sol\":939:966  totalDonations += msg.value */\n      dup3\n      dup3\n      sload\n      tag_55\n      swap2\n      swap1\n      tag_54\n      jump\t// in\n    tag_55:\n      swap3\n      pop\n      pop\n      dup2\n      swap1\n      sstore\n      pop\n        /* \"contracts/DonationBox.sol\":1000:1008  donation */\n      dup1\n        /* \"contracts/DonationBox.sol\":976:985  donations */\n      0x00\n        /* \"contracts/DonationBox.sol\":976:997  donations[msg.sender] */\n      0x00\n        /* \"contracts/DonationBox.sol\":986:996  msg.sender */\n      caller\n        /* \"contracts/DonationBox.sol\":976:997  donations[msg.sender] */\n      0xffffffffffffffffffffffffffffffffffffffff\n      and\n      0xffffffffffffffffffffffffffffffffffffffff\n      and\n      dup2\n      mstore\n      0x20\n      add\n      swap1\n      dup2\n      mstore\n      0x20\n      add\n      0x00\n      keccak256\n        /* \"contracts/DonationBox.sol\":976:1008  donations[msg.sender] = donation */\n      0x00\n      dup3\n      add\n      mload\n      dup2\n      0x00\n      add\n      exp(0x0100, 0x00)\n      dup2\n      sload\n      dup2\n      0xffffffffffffffffffffffffffffffffffffffff\n      mul\n      not\n      and\n      swap1\n      dup4\n      0xffffffffffffffffffffffffffffffffffffffff\n      and\n      mul\n      or\n      swap1\n      sstore\n      pop\n      0x20\n      dup3\n      add\n      mload\n      dup2\n      0x01\n      add\n      sstore\n      0x40\n      dup3\n      add\n      mload\n      dup2\n      0x02\n      add\n      sstore\n      swap1\n      pop\n      pop\n        /* \"contracts/DonationBox.sol\":659:1015  {... */\n      pop\n        /* \"contracts/DonationBox.sol\":625:1015  function donate () public payable {... */\n      jump\t// out\n        /* \"contracts/DonationBox.sol\":85:115  address public immutable admin */\n    tag_32:\n      immutable(\"0x2a80e1ef1d7842f27f2e6be0972bb708b9a135c38860dbe73c27c3486c34f4de\")\n      dup2\n      jump\t// out\n        /* \"contracts/DonationBox.sol\":369:619  function _getDonor() private view returns (Donation memory )  {... */\n    tag_52:\n        /* \"contracts/DonationBox.sol\":412:427  Donation memory */\n      tag_56\n      tag_42\n      jump\t// in\n    tag_56:\n        /* \"contracts/DonationBox.sol\":441:454  address donor */\n      0x00\n        /* \"contracts/DonationBox.sol\":457:466  donations */\n      0x00\n        /* \"contracts/DonationBox.sol\":457:478  donations[msg.sender] */\n      0x00\n        /* \"contracts/DonationBox.sol\":467:477  msg.sender */\n      caller\n        /* \"contracts/DonationBox.sol\":457:478  donations[msg.sender] */\n      0xffffffffffffffffffffffffffffffffffffffff\n      and\n      0xffffffffffffffffffffffffffffffffffffffff\n      and\n      dup2\n      mstore\n      0x20\n      add\n      swap1\n      dup2\n      mstore\n      0x20\n      add\n      0x00\n      keccak256\n        /* \"contracts/DonationBox.sol\":457:484  donations[msg.sender].donor */\n      0x00\n      add\n      0x00\n      swap1\n      sload\n      swap1\n      0x0100\n      exp\n      swap1\n      div\n      0xffffffffffffffffffffffffffffffffffffffff\n      and\n        /* \"contracts/DonationBox.sol\":441:484  address donor = donations[msg.sender].donor */\n      swap1\n      pop\n        /* \"contracts/DonationBox.sol\":514:515  0 */\n      0x00\n        /* \"contracts/DonationBox.sol\":497:516  donor != address(0) */\n      0xffffffffffffffffffffffffffffffffffffffff\n      and\n        /* \"contracts/DonationBox.sol\":497:502  donor */\n      dup2\n        /* \"contracts/DonationBox.sol\":497:516  donor != address(0) */\n      0xffffffffffffffffffffffffffffffffffffffff\n      and\n      eq\n        /* \"contracts/DonationBox.sol\":494:570  if(donor != address(0)){... */\n      tag_58\n      jumpi\n        /* \"contracts/DonationBox.sol\":538:547  donations */\n      0x00\n        /* \"contracts/DonationBox.sol\":538:559  donations[msg.sender] */\n      0x00\n        /* \"contracts/DonationBox.sol\":548:558  msg.sender */\n      caller\n        /* \"contracts/DonationBox.sol\":538:559  donations[msg.sender] */\n      0xffffffffffffffffffffffffffffffffffffffff\n      and\n      0xffffffffffffffffffffffffffffffffffffffff\n      and\n      dup2\n      mstore\n      0x20\n      add\n      swap1\n      dup2\n      mstore\n      0x20\n      add\n      0x00\n      keccak256\n        /* \"contracts/DonationBox.sol\":531:559  return donations[msg.sender] */\n      mload(0x40)\n      dup1\n      0x60\n      add\n      0x40\n      mstore\n      swap1\n      dup2\n      0x00\n      dup3\n      add\n      0x00\n      swap1\n      sload\n      swap1\n      0x0100\n      exp\n      swap1\n      div\n      0xffffffffffffffffffffffffffffffffffffffff\n      and\n      0xffffffffffffffffffffffffffffffffffffffff\n      and\n      0xffffffffffffffffffffffffffffffffffffffff\n      and\n      dup2\n      mstore\n      0x20\n      add\n      0x01\n      dup3\n      add\n      sload\n      dup2\n      mstore\n      0x20\n      add\n      0x02\n      dup3\n      add\n      sload\n      dup2\n      mstore\n      pop\n      pop\n      swap2\n      pop\n      pop\n      jump(tag_57)\n        /* \"contracts/DonationBox.sol\":494:570  if(donor != address(0)){... */\n    tag_58:\n        /* \"contracts/DonationBox.sol\":586:612  Donation(msg.sender, 0, 0) */\n      mload(0x40)\n      dup1\n      0x60\n      add\n      0x40\n      mstore\n      dup1\n        /* \"contracts/DonationBox.sol\":595:605  msg.sender */\n      caller\n        /* \"contracts/DonationBox.sol\":586:612  Donation(msg.sender, 0, 0) */\n      0xffffffffffffffffffffffffffffffffffffffff\n      and\n      dup2\n      mstore\n      0x20\n      add\n        /* \"contracts/DonationBox.sol\":607:608  0 */\n      0x00\n        /* \"contracts/DonationBox.sol\":586:612  Donation(msg.sender, 0, 0) */\n      dup2\n      mstore\n      0x20\n      add\n        /* \"contracts/DonationBox.sol\":610:611  0 */\n      0x00\n        /* \"contracts/DonationBox.sol\":586:612  Donation(msg.sender, 0, 0) */\n      dup2\n      mstore\n      pop\n        /* \"contracts/DonationBox.sol\":579:612  return Donation(msg.sender, 0, 0) */\n      swap2\n      pop\n      pop\n        /* \"contracts/DonationBox.sol\":369:619  function _getDonor() private view returns (Donation memory )  {... */\n    tag_57:\n      swap1\n      jump\t// out\n    tag_42:\n      mload(0x40)\n      dup1\n      0x60\n      add\n      0x40\n      mstore\n      dup1\n      and(0xffffffffffffffffffffffffffffffffffffffff, 0x00)\n      dup2\n      mstore\n      0x20\n      add\n      0x00\n      dup2\n      mstore\n      0x20\n      add\n      0x00\n      dup2\n      mstore\n      pop\n      swap1\n      jump\t// out\n        /* \"#utility.yul\":88:205   */\n    tag_60:\n        /* \"#utility.yul\":197:198   */\n      0x00\n        /* \"#utility.yul\":194:195   */\n      0x00\n        /* \"#utility.yul\":187:199   */\n      revert\n        /* \"#utility.yul\":334:460   */\n    tag_62:\n        /* \"#utility.yul\":371:378   */\n      0x00\n        /* \"#utility.yul\":411:453   */\n      0xffffffffffffffffffffffffffffffffffffffff\n        /* \"#utility.yul\":404:409   */\n      dup3\n        /* \"#utility.yul\":400:454   */\n      and\n        /* \"#utility.yul\":389:454   */\n      swap1\n      pop\n        /* \"#utility.yul\":334:460   */\n      swap2\n      swap1\n      pop\n      jump\t// out\n        /* \"#utility.yul\":466:562   */\n    tag_63:\n        /* \"#utility.yul\":503:510   */\n      0x00\n        /* \"#utility.yul\":532:556   */\n      tag_86\n        /* \"#utility.yul\":550:555   */\n      dup3\n        /* \"#utility.yul\":532:556   */\n      tag_62\n      jump\t// in\n    tag_86:\n        /* \"#utility.yul\":521:556   */\n      swap1\n      pop\n        /* \"#utility.yul\":466:562   */\n      swap2\n      swap1\n      pop\n      jump\t// out\n        /* \"#utility.yul\":568:690   */\n    tag_64:\n        /* \"#utility.yul\":641:665   */\n      tag_88\n        /* \"#utility.yul\":659:664   */\n      dup2\n        /* \"#utility.yul\":641:665   */\n      tag_63\n      jump\t// in\n    tag_88:\n        /* \"#utility.yul\":634:639   */\n      dup2\n        /* \"#utility.yul\":631:666   */\n      eq\n        /* \"#utility.yul\":621:684   */\n      tag_89\n      jumpi\n        /* \"#utility.yul\":680:681   */\n      0x00\n        /* \"#utility.yul\":677:678   */\n      0x00\n        /* \"#utility.yul\":670:682   */\n      revert\n        /* \"#utility.yul\":621:684   */\n    tag_89:\n        /* \"#utility.yul\":568:690   */\n      pop\n      jump\t// out\n        /* \"#utility.yul\":696:835   */\n    tag_65:\n        /* \"#utility.yul\":742:747   */\n      0x00\n        /* \"#utility.yul\":780:786   */\n      dup2\n        /* \"#utility.yul\":767:787   */\n      calldataload\n        /* \"#utility.yul\":758:787   */\n      swap1\n      pop\n        /* \"#utility.yul\":796:829   */\n      tag_91\n        /* \"#utility.yul\":823:828   */\n      dup2\n        /* \"#utility.yul\":796:829   */\n      tag_64\n      jump\t// in\n    tag_91:\n        /* \"#utility.yul\":696:835   */\n      swap3\n      swap2\n      pop\n      pop\n      jump\t// out\n        /* \"#utility.yul\":841:1170   */\n    tag_14:\n        /* \"#utility.yul\":900:906   */\n      0x00\n        /* \"#utility.yul\":949:951   */\n      0x20\n        /* \"#utility.yul\":937:946   */\n      dup3\n        /* \"#utility.yul\":928:935   */\n      dup5\n        /* \"#utility.yul\":924:947   */\n      sub\n        /* \"#utility.yul\":920:952   */\n      slt\n        /* \"#utility.yul\":917:1036   */\n      iszero\n      tag_93\n      jumpi\n        /* \"#utility.yul\":955:1034   */\n      tag_94\n      tag_60\n      jump\t// in\n    tag_94:\n        /* \"#utility.yul\":917:1036   */\n    tag_93:\n        /* \"#utility.yul\":1075:1076   */\n      0x00\n        /* \"#utility.yul\":1100:1153   */\n      tag_95\n        /* \"#utility.yul\":1145:1152   */\n      dup5\n        /* \"#utility.yul\":1136:1142   */\n      dup3\n        /* \"#utility.yul\":1125:1134   */\n      dup6\n        /* \"#utility.yul\":1121:1143   */\n      add\n        /* \"#utility.yul\":1100:1153   */\n      tag_65\n      jump\t// in\n    tag_95:\n        /* \"#utility.yul\":1090:1153   */\n      swap2\n      pop\n        /* \"#utility.yul\":1046:1163   */\n      pop\n        /* \"#utility.yul\":841:1170   */\n      swap3\n      swap2\n      pop\n      pop\n      jump\t// out\n        /* \"#utility.yul\":1176:1294   */\n    tag_66:\n        /* \"#utility.yul\":1263:1287   */\n      tag_97\n        /* \"#utility.yul\":1281:1286   */\n      dup2\n        /* \"#utility.yul\":1263:1287   */\n      tag_63\n      jump\t// in\n    tag_97:\n        /* \"#utility.yul\":1258:1261   */\n      dup3\n        /* \"#utility.yul\":1251:1288   */\n      mstore\n        /* \"#utility.yul\":1176:1294   */\n      pop\n      pop\n      jump\t// out\n        /* \"#utility.yul\":1300:1377   */\n    tag_67:\n        /* \"#utility.yul\":1337:1344   */\n      0x00\n        /* \"#utility.yul\":1366:1371   */\n      dup2\n        /* \"#utility.yul\":1355:1371   */\n      swap1\n      pop\n        /* \"#utility.yul\":1300:1377   */\n      swap2\n      swap1\n      pop\n      jump\t// out\n        /* \"#utility.yul\":1383:1501   */\n    tag_68:\n        /* \"#utility.yul\":1470:1494   */\n      tag_100\n        /* \"#utility.yul\":1488:1493   */\n      dup2\n        /* \"#utility.yul\":1470:1494   */\n      tag_67\n      jump\t// in\n    tag_100:\n        /* \"#utility.yul\":1465:1468   */\n      dup3\n        /* \"#utility.yul\":1458:1495   */\n      mstore\n        /* \"#utility.yul\":1383:1501   */\n      pop\n      pop\n      jump\t// out\n        /* \"#utility.yul\":1507:1949   */\n    tag_17:\n        /* \"#utility.yul\":1656:1660   */\n      0x00\n        /* \"#utility.yul\":1694:1696   */\n      0x60\n        /* \"#utility.yul\":1683:1692   */\n      dup3\n        /* \"#utility.yul\":1679:1697   */\n      add\n        /* \"#utility.yul\":1671:1697   */\n      swap1\n      pop\n        /* \"#utility.yul\":1707:1778   */\n      tag_102\n        /* \"#utility.yul\":1775:1776   */\n      0x00\n        /* \"#utility.yul\":1764:1773   */\n      dup4\n        /* \"#utility.yul\":1760:1777   */\n      add\n        /* \"#utility.yul\":1751:1757   */\n      dup7\n        /* \"#utility.yul\":1707:1778   */\n      tag_66\n      jump\t// in\n    tag_102:\n        /* \"#utility.yul\":1788:1860   */\n      tag_103\n        /* \"#utility.yul\":1856:1858   */\n      0x20\n        /* \"#utility.yul\":1845:1854   */\n      dup4\n        /* \"#utility.yul\":1841:1859   */\n      add\n        /* \"#utility.yul\":1832:1838   */\n      dup6\n        /* \"#utility.yul\":1788:1860   */\n      tag_68\n      jump\t// in\n    tag_103:\n        /* \"#utility.yul\":1870:1942   */\n      tag_104\n        /* \"#utility.yul\":1938:1940   */\n      0x40\n        /* \"#utility.yul\":1927:1936   */\n      dup4\n        /* \"#utility.yul\":1923:1941   */\n      add\n        /* \"#utility.yul\":1914:1920   */\n      dup5\n        /* \"#utility.yul\":1870:1942   */\n      tag_68\n      jump\t// in\n    tag_104:\n        /* \"#utility.yul\":1507:1949   */\n      swap5\n      swap4\n      pop\n      pop\n      pop\n      pop\n      jump\t// out\n        /* \"#utility.yul\":1955:2177   */\n    tag_22:\n        /* \"#utility.yul\":2048:2052   */\n      0x00\n        /* \"#utility.yul\":2086:2088   */\n      0x20\n        /* \"#utility.yul\":2075:2084   */\n      dup3\n        /* \"#utility.yul\":2071:2089   */\n      add\n        /* \"#utility.yul\":2063:2089   */\n      swap1\n      pop\n        /* \"#utility.yul\":2099:2170   */\n      tag_106\n        /* \"#utility.yul\":2167:2168   */\n      0x00\n        /* \"#utility.yul\":2156:2165   */\n      dup4\n        /* \"#utility.yul\":2152:2169   */\n      add\n        /* \"#utility.yul\":2143:2149   */\n      dup5\n        /* \"#utility.yul\":2099:2170   */\n      tag_68\n      jump\t// in\n    tag_106:\n        /* \"#utility.yul\":1955:2177   */\n      swap3\n      swap2\n      pop\n      pop\n      jump\t// out\n        /* \"#utility.yul\":2183:2291   */\n    tag_69:\n        /* \"#utility.yul\":2260:2284   */\n      tag_108\n        /* \"#utility.yul\":2278:2283   */\n      dup2\n        /* \"#utility.yul\":2260:2284   */\n      tag_63\n      jump\t// in\n    tag_108:\n        /* \"#utility.yul\":2255:2258   */\n      dup3\n        /* \"#utility.yul\":2248:2285   */\n      mstore\n        /* \"#utility.yul\":2183:2291   */\n      pop\n      pop\n      jump\t// out\n        /* \"#utility.yul\":2297:2405   */\n    tag_70:\n        /* \"#utility.yul\":2374:2398   */\n      tag_110\n        /* \"#utility.yul\":2392:2397   */\n      dup2\n        /* \"#utility.yul\":2374:2398   */\n      tag_67\n      jump\t// in\n    tag_110:\n        /* \"#utility.yul\":2369:2372   */\n      dup3\n        /* \"#utility.yul\":2362:2399   */\n      mstore\n        /* \"#utility.yul\":2297:2405   */\n      pop\n      pop\n      jump\t// out\n        /* \"#utility.yul\":2477:3167   */\n    tag_71:\n        /* \"#utility.yul\":2622:2626   */\n      0x60\n        /* \"#utility.yul\":2617:2620   */\n      dup3\n        /* \"#utility.yul\":2613:2627   */\n      add\n        /* \"#utility.yul\":2710:2714   */\n      0x00\n        /* \"#utility.yul\":2703:2708   */\n      dup3\n        /* \"#utility.yul\":2699:2715   */\n      add\n        /* \"#utility.yul\":2693:2716   */\n      mload\n        /* \"#utility.yul\":2729:2792   */\n      tag_112\n        /* \"#utility.yul\":2786:2790   */\n      0x00\n        /* \"#utility.yul\":2781:2784   */\n      dup6\n        /* \"#utility.yul\":2777:2791   */\n      add\n        /* \"#utility.yul\":2763:2775   */\n      dup3\n        /* \"#utility.yul\":2729:2792   */\n      tag_69\n      jump\t// in\n    tag_112:\n        /* \"#utility.yul\":2637:2802   */\n      pop\n        /* \"#utility.yul\":2886:2890   */\n      0x20\n        /* \"#utility.yul\":2879:2884   */\n      dup3\n        /* \"#utility.yul\":2875:2891   */\n      add\n        /* \"#utility.yul\":2869:2892   */\n      mload\n        /* \"#utility.yul\":2905:2968   */\n      tag_113\n        /* \"#utility.yul\":2962:2966   */\n      0x20\n        /* \"#utility.yul\":2957:2960   */\n      dup6\n        /* \"#utility.yul\":2953:2967   */\n      add\n        /* \"#utility.yul\":2939:2951   */\n      dup3\n        /* \"#utility.yul\":2905:2968   */\n      tag_70\n      jump\t// in\n    tag_113:\n        /* \"#utility.yul\":2812:2978   */\n      pop\n        /* \"#utility.yul\":3068:3072   */\n      0x40\n        /* \"#utility.yul\":3061:3066   */\n      dup3\n        /* \"#utility.yul\":3057:3073   */\n      add\n        /* \"#utility.yul\":3051:3074   */\n      mload\n        /* \"#utility.yul\":3087:3150   */\n      tag_114\n        /* \"#utility.yul\":3144:3148   */\n      0x40\n        /* \"#utility.yul\":3139:3142   */\n      dup6\n        /* \"#utility.yul\":3135:3149   */\n      add\n        /* \"#utility.yul\":3121:3133   */\n      dup3\n        /* \"#utility.yul\":3087:3150   */\n      tag_70\n      jump\t// in\n    tag_114:\n        /* \"#utility.yul\":2988:3160   */\n      pop\n        /* \"#utility.yul\":2591:3167   */\n      pop\n        /* \"#utility.yul\":2477:3167   */\n      pop\n      pop\n      jump\t// out\n        /* \"#utility.yul\":3173:3491   */\n    tag_27:\n        /* \"#utility.yul\":3314:3318   */\n      0x00\n        /* \"#utility.yul\":3352:3354   */\n      0x60\n        /* \"#utility.yul\":3341:3350   */\n      dup3\n        /* \"#utility.yul\":3337:3355   */\n      add\n        /* \"#utility.yul\":3329:3355   */\n      swap1\n      pop\n        /* \"#utility.yul\":3365:3484   */\n      tag_116\n        /* \"#utility.yul\":3481:3482   */\n      0x00\n        /* \"#utility.yul\":3470:3479   */\n      dup4\n        /* \"#utility.yul\":3466:3483   */\n      add\n        /* \"#utility.yul\":3457:3463   */\n      dup5\n        /* \"#utility.yul\":3365:3484   */\n      tag_71\n      jump\t// in\n    tag_116:\n        /* \"#utility.yul\":3173:3491   */\n      swap3\n      swap2\n      pop\n      pop\n      jump\t// out\n        /* \"#utility.yul\":3497:3719   */\n    tag_34:\n        /* \"#utility.yul\":3590:3594   */\n      0x00\n        /* \"#utility.yul\":3628:3630   */\n      0x20\n        /* \"#utility.yul\":3617:3626   */\n      dup3\n        /* \"#utility.yul\":3613:3631   */\n      add\n        /* \"#utility.yul\":3605:3631   */\n      swap1\n      pop\n        /* \"#utility.yul\":3641:3712   */\n      tag_118\n        /* \"#utility.yul\":3709:3710   */\n      0x00\n        /* \"#utility.yul\":3698:3707   */\n      dup4\n        /* \"#utility.yul\":3694:3711   */\n      add\n        /* \"#utility.yul\":3685:3691   */\n      dup5\n        /* \"#utility.yul\":3641:3712   */\n      tag_66\n      jump\t// in\n    tag_118:\n        /* \"#utility.yul\":3497:3719   */\n      swap3\n      swap2\n      pop\n      pop\n      jump\t// out\n        /* \"#utility.yul\":3725:3894   */\n    tag_72:\n        /* \"#utility.yul\":3809:3820   */\n      0x00\n        /* \"#utility.yul\":3843:3849   */\n      dup3\n        /* \"#utility.yul\":3838:3841   */\n      dup3\n        /* \"#utility.yul\":3831:3850   */\n      mstore\n        /* \"#utility.yul\":3883:3887   */\n      0x20\n        /* \"#utility.yul\":3878:3881   */\n      dup3\n        /* \"#utility.yul\":3874:3888   */\n      add\n        /* \"#utility.yul\":3859:3888   */\n      swap1\n      pop\n        /* \"#utility.yul\":3725:3894   */\n      swap3\n      swap2\n      pop\n      pop\n      jump\t// out\n        /* \"#utility.yul\":3900:4073   */\n    tag_73:\n        /* \"#utility.yul\":4040:4065   */\n      0x4f6e6c792061646d696e2063616e207769746864726177000000000000000000\n        /* \"#utility.yul\":4036:4037   */\n      0x00\n        /* \"#utility.yul\":4028:4034   */\n      dup3\n        /* \"#utility.yul\":4024:4038   */\n      add\n        /* \"#utility.yul\":4017:4066   */\n      mstore\n        /* \"#utility.yul\":3900:4073   */\n      pop\n      jump\t// out\n        /* \"#utility.yul\":4079:4445   */\n    tag_74:\n        /* \"#utility.yul\":4221:4224   */\n      0x00\n        /* \"#utility.yul\":4242:4309   */\n      tag_122\n        /* \"#utility.yul\":4306:4308   */\n      0x17\n        /* \"#utility.yul\":4301:4304   */\n      dup4\n        /* \"#utility.yul\":4242:4309   */\n      tag_72\n      jump\t// in\n    tag_122:\n        /* \"#utility.yul\":4235:4309   */\n      swap2\n      pop\n        /* \"#utility.yul\":4318:4411   */\n      tag_123\n        /* \"#utility.yul\":4407:4410   */\n      dup3\n        /* \"#utility.yul\":4318:4411   */\n      tag_73\n      jump\t// in\n    tag_123:\n        /* \"#utility.yul\":4436:4438   */\n      0x20\n        /* \"#utility.yul\":4431:4434   */\n      dup3\n        /* \"#utility.yul\":4427:4439   */\n      add\n        /* \"#utility.yul\":4420:4439   */\n      swap1\n      pop\n        /* \"#utility.yul\":4079:4445   */\n      swap2\n      swap1\n      pop\n      jump\t// out\n        /* \"#utility.yul\":4451:4870   */\n    tag_38:\n        /* \"#utility.yul\":4617:4621   */\n      0x00\n        /* \"#utility.yul\":4655:4657   */\n      0x20\n        /* \"#utility.yul\":4644:4653   */\n      dup3\n        /* \"#utility.yul\":4640:4658   */\n      add\n        /* \"#utility.yul\":4632:4658   */\n      swap1\n      pop\n        /* \"#utility.yul\":4704:4713   */\n      dup2\n        /* \"#utility.yul\":4698:4702   */\n      dup2\n        /* \"#utility.yul\":4694:4714   */\n      sub\n        /* \"#utility.yul\":4690:4691   */\n      0x00\n        /* \"#utility.yul\":4679:4688   */\n      dup4\n        /* \"#utility.yul\":4675:4692   */\n      add\n        /* \"#utility.yul\":4668:4715   */\n      mstore\n        /* \"#utility.yul\":4732:4863   */\n      tag_125\n        /* \"#utility.yul\":4858:4862   */\n      dup2\n        /* \"#utility.yul\":4732:4863   */\n      tag_74\n      jump\t// in\n    tag_125:\n        /* \"#utility.yul\":4724:4863   */\n      swap1\n      pop\n        /* \"#utility.yul\":4451:4870   */\n      swap2\n      swap1\n      pop\n      jump\t// out\n        /* \"#utility.yul\":4876:5101   */\n    tag_75:\n        /* \"#utility.yul\":5016:5050   */\n      0x446f6e6174696f6e20616d6f756e74206d757374206265206772656174657220\n        /* \"#utility.yul\":5012:5013   */\n      0x00\n        /* \"#utility.yul\":5004:5010   */\n      dup3\n        /* \"#utility.yul\":5000:5014   */\n      add\n        /* \"#utility.yul\":4993:5051   */\n      mstore\n        /* \"#utility.yul\":5085:5093   */\n      0x7468616e20300000000000000000000000000000000000000000000000000000\n        /* \"#utility.yul\":5080:5082   */\n      0x20\n        /* \"#utility.yul\":5072:5078   */\n      dup3\n        /* \"#utility.yul\":5068:5083   */\n      add\n        /* \"#utility.yul\":5061:5094   */\n      mstore\n        /* \"#utility.yul\":4876:5101   */\n      pop\n      jump\t// out\n        /* \"#utility.yul\":5107:5473   */\n    tag_76:\n        /* \"#utility.yul\":5249:5252   */\n      0x00\n        /* \"#utility.yul\":5270:5337   */\n      tag_128\n        /* \"#utility.yul\":5334:5336   */\n      0x26\n        /* \"#utility.yul\":5329:5332   */\n      dup4\n        /* \"#utility.yul\":5270:5337   */\n      tag_72\n      jump\t// in\n    tag_128:\n        /* \"#utility.yul\":5263:5337   */\n      swap2\n      pop\n        /* \"#utility.yul\":5346:5439   */\n      tag_129\n        /* \"#utility.yul\":5435:5438   */\n      dup3\n        /* \"#utility.yul\":5346:5439   */\n      tag_75\n      jump\t// in\n    tag_129:\n        /* \"#utility.yul\":5464:5466   */\n      0x40\n        /* \"#utility.yul\":5459:5462   */\n      dup3\n        /* \"#utility.yul\":5455:5467   */\n      add\n        /* \"#utility.yul\":5448:5467   */\n      swap1\n      pop\n        /* \"#utility.yul\":5107:5473   */\n      swap2\n      swap1\n      pop\n      jump\t// out\n        /* \"#utility.yul\":5479:5898   */\n    tag_47:\n        /* \"#utility.yul\":5645:5649   */\n      0x00\n        /* \"#utility.yul\":5683:5685   */\n      0x20\n        /* \"#utility.yul\":5672:5681   */\n      dup3\n        /* \"#utility.yul\":5668:5686   */\n      add\n        /* \"#utility.yul\":5660:5686   */\n      swap1\n      pop\n        /* \"#utility.yul\":5732:5741   */\n      dup2\n        /* \"#utility.yul\":5726:5730   */\n      dup2\n        /* \"#utility.yul\":5722:5742   */\n      sub\n        /* \"#utility.yul\":5718:5719   */\n      0x00\n        /* \"#utility.yul\":5707:5716   */\n      dup4\n        /* \"#utility.yul\":5703:5720   */\n      add\n        /* \"#utility.yul\":5696:5743   */\n      mstore\n        /* \"#utility.yul\":5760:5891   */\n      tag_131\n        /* \"#utility.yul\":5886:5890   */\n      dup2\n        /* \"#utility.yul\":5760:5891   */\n      tag_76\n      jump\t// in\n    tag_131:\n        /* \"#utility.yul\":5752:5891   */\n      swap1\n      pop\n        /* \"#utility.yul\":5479:5898   */\n      swap2\n      swap1\n      pop\n      jump\t// out\n        /* \"#utility.yul\":5904:6073   */\n    tag_77:\n        /* \"#utility.yul\":6044:6065   */\n      0x41646d696e2063616e6e6f7420646f6e61746500000000000000000000000000\n        /* \"#utility.yul\":6040:6041   */\n      0x00\n        /* \"#utility.yul\":6032:6038   */\n      dup3\n        /* \"#utility.yul\":6028:6042   */\n      add\n        /* \"#utility.yul\":6021:6066   */\n      mstore\n        /* \"#utility.yul\":5904:6073   */\n      pop\n      jump\t// out\n        /* \"#utility.yul\":6079:6445   */\n    tag_78:\n        /* \"#utility.yul\":6221:6224   */\n      0x00\n        /* \"#utility.yul\":6242:6309   */\n      tag_134\n        /* \"#utility.yul\":6306:6308   */\n      0x13\n        /* \"#utility.yul\":6301:6304   */\n      dup4\n        /* \"#utility.yul\":6242:6309   */\n      tag_72\n      jump\t// in\n    tag_134:\n        /* \"#utility.yul\":6235:6309   */\n      swap2\n      pop\n        /* \"#utility.yul\":6318:6411   */\n      tag_135\n        /* \"#utility.yul\":6407:6410   */\n      dup3\n        /* \"#utility.yul\":6318:6411   */\n      tag_77\n      jump\t// in\n    tag_135:\n        /* \"#utility.yul\":6436:6438   */\n      0x20\n        /* \"#utility.yul\":6431:6434   */\n      dup3\n        /* \"#utility.yul\":6427:6439   */\n      add\n        /* \"#utility.yul\":6420:6439   */\n      swap1\n      pop\n        /* \"#utility.yul\":6079:6445   */\n      swap2\n      swap1\n      pop\n      jump\t// out\n        /* \"#utility.yul\":6451:6870   */\n    tag_50:\n        /* \"#utility.yul\":6617:6621   */\n      0x00\n        /* \"#utility.yul\":6655:6657   */\n      0x20\n        /* \"#utility.yul\":6644:6653   */\n      dup3\n        /* \"#utility.yul\":6640:6658   */\n      add\n        /* \"#utility.yul\":6632:6658   */\n      swap1\n      pop\n        /* \"#utility.yul\":6704:6713   */\n      dup2\n        /* \"#utility.yul\":6698:6702   */\n      dup2\n        /* \"#utility.yul\":6694:6714   */\n      sub\n        /* \"#utility.yul\":6690:6691   */\n      0x00\n        /* \"#utility.yul\":6679:6688   */\n      dup4\n        /* \"#utility.yul\":6675:6692   */\n      add\n        /* \"#utility.yul\":6668:6715   */\n      mstore\n        /* \"#utility.yul\":6732:6863   */\n      tag_137\n        /* \"#utility.yul\":6858:6862   */\n      dup2\n        /* \"#utility.yul\":6732:6863   */\n      tag_78\n      jump\t// in\n    tag_137:\n        /* \"#utility.yul\":6724:6863   */\n      swap1\n      pop\n        /* \"#utility.yul\":6451:6870   */\n      swap2\n      swap1\n      pop\n      jump\t// out\n        /* \"#utility.yul\":6876:7056   */\n    tag_79:\n        /* \"#utility.yul\":6924:7001   */\n      0x4e487b7100000000000000000000000000000000000000000000000000000000\n        /* \"#utility.yul\":6921:6922   */\n      0x00\n        /* \"#utility.yul\":6914:7002   */\n      mstore\n        /* \"#utility.yul\":7021:7025   */\n      0x11\n        /* \"#utility.yul\":7018:7019   */\n      0x04\n        /* \"#utility.yul\":7011:7026   */\n      mstore\n        /* \"#utility.yul\":7045:7049   */\n      0x24\n        /* \"#utility.yul\":7042:7043   */\n      0x00\n        /* \"#utility.yul\":7035:7050   */\n      revert\n        /* \"#utility.yul\":7062:7253   */\n    tag_54:\n        /* \"#utility.yul\":7102:7105   */\n      0x00\n        /* \"#utility.yul\":7121:7141   */\n      tag_140\n        /* \"#utility.yul\":7139:7140   */\n      dup3\n        /* \"#utility.yul\":7121:7141   */\n      tag_67\n      jump\t// in\n    tag_140:\n        /* \"#utility.yul\":7116:7141   */\n      swap2\n      pop\n        /* \"#utility.yul\":7155:7175   */\n      tag_141\n        /* \"#utility.yul\":7173:7174   */\n      dup4\n        /* \"#utility.yul\":7155:7175   */\n      tag_67\n      jump\t// in\n    tag_141:\n        /* \"#utility.yul\":7150:7175   */\n      swap3\n      pop\n        /* \"#utility.yul\":7198:7199   */\n      dup3\n        /* \"#utility.yul\":7195:7196   */\n      dup3\n        /* \"#utility.yul\":7191:7200   */\n      add\n        /* \"#utility.yul\":7184:7200   */\n      swap1\n      pop\n        /* \"#utility.yul\":7219:7222   */\n      dup1\n        /* \"#utility.yul\":7216:7217   */\n      dup3\n        /* \"#utility.yul\":7213:7223   */\n      gt\n        /* \"#utility.yul\":7210:7246   */\n      iszero\n      tag_142\n      jumpi\n        /* \"#utility.yul\":7226:7244   */\n      tag_143\n      tag_79\n      jump\t// in\n    tag_143:\n        /* \"#utility.yul\":7210:7246   */\n    tag_142:\n        /* \"#utility.yul\":7062:7253   */\n      swap3\n      swap2\n      pop\n      pop\n      jump\t// out\n\n    auxdata: 0xa2646970667358221220f43f9dc914c07ec2d836b424c584a52eba8a6281b4adeda170c9a4407e10c3e464736f6c634300081e0033\n}\n",
				"bytecode": {
					"linkReferences": {},
					"object": "60a0604052348015600e575f5ffd5b503373ffffffffffffffffffffffffffffffffffffffff1660808173ffffffffffffffffffffffffffffffffffffffff1681525050608051610a596100705f395f8181610136015281816101c80152818161038e01526104e60152610a595ff3fe608060405260043610610054575f3560e01c80633ccfd60b14610058578063cc6cb19a1461006e578063de2ed893146100ac578063e0218fb3146100d6578063ed88c68e14610100578063f851a4401461010a575b5f5ffd5b348015610063575f5ffd5b5061006c610134565b005b348015610079575f5ffd5b50610094600480360381019061008f9190610725565b61022d565b6040516100a393929190610777565b60405180910390f35b3480156100b7575f5ffd5b506100c0610271565b6040516100cd91906107ac565b60405180910390f35b3480156100e1575f5ffd5b506100ea610277565b6040516100f79190610823565b60405180910390f35b610108610333565b005b348015610115575f5ffd5b5061011e6104e4565b60405161012b919061083c565b60405180910390f35b7f000000000000000000000000000000000000000000000000000000000000000073ffffffffffffffffffffffffffffffffffffffff163373ffffffffffffffffffffffffffffffffffffffff16146101c2576040517f08c379a00000000000000000000000000000000000000000000000000000000081526004016101b9906108af565b60405180910390fd5b5f4790507f000000000000000000000000000000000000000000000000000000000000000073ffffffffffffffffffffffffffffffffffffffff166108fc8290811502906040515f60405180830381858888f19350505050158015610229573d5f5f3e3d5ffd5b5050565b5f602052805f5260405f205f91509050805f015f9054906101000a900473ffffffffffffffffffffffffffffffffffffffff16908060010154908060020154905083565b60015481565b61027f610693565b5f5f3373ffffffffffffffffffffffffffffffffffffffff1673ffffffffffffffffffffffffffffffffffffffff1681526020019081526020015f206040518060600160405290815f82015f9054906101000a900473ffffffffffffffffffffffffffffffffffffffff1673ffffffffffffffffffffffffffffffffffffffff1673ffffffffffffffffffffffffffffffffffffffff16815260200160018201548152602001600282015481525050905090565b5f3411610375576040517f08c379a000000000000000000000000000000000000000000000000000000000815260040161036c9061093d565b60405180910390fd5b3373ffffffffffffffffffffffffffffffffffffffff167f000000000000000000000000000000000000000000000000000000000000000073ffffffffffffffffffffffffffffffffffffffff1603610403576040517f08c379a00000000000000000000000000000000000000000000000000000000081526004016103fa906109a5565b60405180910390fd5b5f61040c610508565b9050348160200181815161042091906109f0565b91508181525050428160400181815250503460015f82825461044291906109f0565b92505081905550805f5f3373ffffffffffffffffffffffffffffffffffffffff1673ffffffffffffffffffffffffffffffffffffffff1681526020019081526020015f205f820151815f015f6101000a81548173ffffffffffffffffffffffffffffffffffffffff021916908373ffffffffffffffffffffffffffffffffffffffff160217905550602082015181600101556040820151816002015590505050565b7f000000000000000000000000000000000000000000000000000000000000000081565b610510610693565b5f5f5f3373ffffffffffffffffffffffffffffffffffffffff1673ffffffffffffffffffffffffffffffffffffffff1681526020019081526020015f205f015f9054906101000a900473ffffffffffffffffffffffffffffffffffffffff1690505f73ffffffffffffffffffffffffffffffffffffffff168173ffffffffffffffffffffffffffffffffffffffff161461065b575f5f3373ffffffffffffffffffffffffffffffffffffffff1673ffffffffffffffffffffffffffffffffffffffff1681526020019081526020015f206040518060600160405290815f82015f9054906101000a900473ffffffffffffffffffffffffffffffffffffffff1673ffffffffffffffffffffffffffffffffffffffff1673ffffffffffffffffffffffffffffffffffffffff16815260200160018201548152602001600282015481525050915050610690565b60405180606001604052803373ffffffffffffffffffffffffffffffffffffffff1681526020015f81526020015f8152509150505b90565b60405180606001604052805f73ffffffffffffffffffffffffffffffffffffffff1681526020015f81526020015f81525090565b5f5ffd5b5f73ffffffffffffffffffffffffffffffffffffffff82169050919050565b5f6106f4826106cb565b9050919050565b610704816106ea565b811461070e575f5ffd5b50565b5f8135905061071f816106fb565b92915050565b5f6020828403121561073a576107396106c7565b5b5f61074784828501610711565b91505092915050565b610759816106ea565b82525050565b5f819050919050565b6107718161075f565b82525050565b5f60608201905061078a5f830186610750565b6107976020830185610768565b6107a46040830184610768565b949350505050565b5f6020820190506107bf5f830184610768565b92915050565b6107ce816106ea565b82525050565b6107dd8161075f565b82525050565b606082015f8201516107f75f8501826107c5565b50602082015161080a60208501826107d4565b50604082015161081d60408501826107d4565b50505050565b5f6060820190506108365f8301846107e3565b92915050565b5f60208201905061084f5f830184610750565b92915050565b5f82825260208201905092915050565b7f4f6e6c792061646d696e2063616e2077697468647261770000000000000000005f82015250565b5f610899601783610855565b91506108a482610865565b602082019050919050565b5f6020820190508181035f8301526108c68161088d565b9050919050565b7f446f6e6174696f6e20616d6f756e74206d7573742062652067726561746572205f8201527f7468616e20300000000000000000000000000000000000000000000000000000602082015250565b5f610927602683610855565b9150610932826108cd565b604082019050919050565b5f6020820190508181035f8301526109548161091b565b9050919050565b7f41646d696e2063616e6e6f7420646f6e617465000000000000000000000000005f82015250565b5f61098f601383610855565b915061099a8261095b565b602082019050919050565b5f6020820190508181035f8301526109bc81610983565b9050919050565b7f4e487b71000000000000000000000000000000000000000000000000000000005f52601160045260245ffd5b5f6109fa8261075f565b9150610a058361075f565b9250828201905080821115610a1d57610a1c6109c3565b5b9291505056fea2646970667358221220f43f9dc914c07ec2d836b424c584a52eba8a6281b4adeda170c9a4407e10c3e464736f6c634300081e0033",
					"opcodes": "PUSH1 0xA0 PUSH1 0x40 MSTORE CALLVALUE DUP1 ISZERO PUSH1 0xE JUMPI PUSH0 PUSH0 REVERT JUMPDEST POP CALLER PUSH20 0xFFFFFFFFFFFFFFFFFFFFFFFFFFFFFFFFFFFFFFFF AND PUSH1 0x80 DUP2 PUSH20 0xFFFFFFFFFFFFFFFFFFFFFFFFFFFFFFFFFFFFFFFF AND DUP2 MSTORE POP POP PUSH1 0x80 MLOAD PUSH2 0xA59 PUSH2 0x70 PUSH0 CODECOPY PUSH0 DUP2 DUP2 PUSH2 0x136 ADD MSTORE DUP2 DUP2 PUSH2 0x1C8 ADD MSTORE DUP2 DUP2 PUSH2 0x38E ADD MSTORE PUSH2 0x4E6 ADD MSTORE PUSH2 0xA59 PUSH0 RETURN INVALID PUSH1 0x80 PUSH1 0x40 MSTORE PUSH1 0x4 CALLDATASIZE LT PUSH2 0x54 JUMPI PUSH0 CALLDATALOAD PUSH1 0xE0 SHR DUP1 PUSH4 0x3CCFD60B EQ PUSH2 0x58 JUMPI DUP1 PUSH4 0xCC6CB19A EQ PUSH2 0x6E JUMPI DUP1 PUSH4 0xDE2ED893 EQ PUSH2 0xAC JUMPI DUP1 PUSH4 0xE0218FB3 EQ PUSH2 0xD6 JUMPI DUP1 PUSH4 0xED88C68E EQ PUSH2 0x100 JUMPI DUP1 PUSH4 0xF851A440 EQ PUSH2 0x10A JUMPI JUMPDEST PUSH0 PUSH0 REVERT JUMPDEST CALLVALUE DUP1 ISZERO PUSH2 0x63 JUMPI PUSH0 PUSH0 REVERT JUMPDEST POP PUSH2 0x6C PUSH2 0x134 JUMP JUMPDEST STOP JUMPDEST CALLVALUE DUP1 ISZERO PUSH2 0x79 JUMPI PUSH0 PUSH0 REVERT JUMPDEST POP PUSH2 0x94 PUSH1 0x4 DUP1 CALLDATASIZE SUB DUP2 ADD SWAP1 PUSH2 0x8F SWAP2 SWAP1 PUSH2 0x725 JUMP JUMPDEST PUSH2 0x22D JUMP JUMPDEST PUSH1 0x40 MLOAD PUSH2 0xA3 SWAP4 SWAP3 SWAP2 SWAP1 PUSH2 0x777 JUMP JUMPDEST PUSH1 0x40 MLOAD DUP1 SWAP2 SUB SWAP1 RETURN JUMPDEST CALLVALUE DUP1 ISZERO PUSH2 0xB7 JUMPI PUSH0 PUSH0 REVERT JUMPDEST POP PUSH2 0xC0 PUSH2 0x271 JUMP JUMPDEST PUSH1 0x40 MLOAD PUSH2 0xCD SWAP2 SWAP1 PUSH2 0x7AC JUMP JUMPDEST PUSH1 0x40 MLOAD DUP1 SWAP2 SUB SWAP1 RETURN JUMPDEST CALLVALUE DUP1 ISZERO PUSH2 0xE1 JUMPI PUSH0 PUSH0 REVERT JUMPDEST POP PUSH2 0xEA PUSH2 0x277 JUMP JUMPDEST PUSH1 0x40 MLOAD PUSH2 0xF7 SWAP2 SWAP1 PUSH2 0x823 JUMP JUMPDEST PUSH1 0x40 MLOAD DUP1 SWAP2 SUB SWAP1 RETURN JUMPDEST PUSH2 0x108 PUSH2 0x333 JUMP JUMPDEST STOP JUMPDEST CALLVALUE DUP1 ISZERO PUSH2 0x115 JUMPI PUSH0 PUSH0 REVERT JUMPDEST POP PUSH2 0x11E PUSH2 0x4E4 JUMP JUMPDEST PUSH1 0x40 MLOAD PUSH2 0x12B SWAP2 SWAP1 PUSH2 0x83C JUMP JUMPDEST PUSH1 0x40 MLOAD DUP1 SWAP2 SUB SWAP1 RETURN JUMPDEST PUSH32 0x0 PUSH20 0xFFFFFFFFFFFFFFFFFFFFFFFFFFFFFFFFFFFFFFFF AND CALLER PUSH20 0xFFFFFFFFFFFFFFFFFFFFFFFFFFFFFFFFFFFFFFFF AND EQ PUSH2 0x1C2 JUMPI PUSH1 0x40 MLOAD PUSH32 0x8C379A000000000000000000000000000000000000000000000000000000000 DUP2 MSTORE PUSH1 0x4 ADD PUSH2 0x1B9 SWAP1 PUSH2 0x8AF JUMP JUMPDEST PUSH1 0x40 MLOAD DUP1 SWAP2 SUB SWAP1 REVERT JUMPDEST PUSH0 SELFBALANCE SWAP1 POP PUSH32 0x0 PUSH20 0xFFFFFFFFFFFFFFFFFFFFFFFFFFFFFFFFFFFFFFFF AND PUSH2 0x8FC DUP3 SWAP1 DUP2 ISZERO MUL SWAP1 PUSH1 0x40 MLOAD PUSH0 PUSH1 0x40 MLOAD DUP1 DUP4 SUB DUP2 DUP6 DUP9 DUP9 CALL SWAP4 POP POP POP POP ISZERO DUP1 ISZERO PUSH2 0x229 JUMPI RETURNDATASIZE PUSH0 PUSH0 RETURNDATACOPY RETURNDATASIZE PUSH0 REVERT JUMPDEST POP POP JUMP JUMPDEST PUSH0 PUSH1 0x20 MSTORE DUP1 PUSH0 MSTORE PUSH1 0x40 PUSH0 KECCAK256 PUSH0 SWAP2 POP SWAP1 POP DUP1 PUSH0 ADD PUSH0 SWAP1 SLOAD SWAP1 PUSH2 0x100 EXP SWAP1 DIV PUSH20 0xFFFFFFFFFFFFFFFFFFFFFFFFFFFFFFFFFFFFFFFF AND SWAP1 DUP1 PUSH1 0x1 ADD SLOAD SWAP1 DUP1 PUSH1 0x2 ADD SLOAD SWAP1 POP DUP4 JUMP JUMPDEST PUSH1 0x1 SLOAD DUP2 JUMP JUMPDEST PUSH2 0x27F PUSH2 0x693 JUMP JUMPDEST PUSH0 PUSH0 CALLER PUSH20 0xFFFFFFFFFFFFFFFFFFFFFFFFFFFFFFFFFFFFFFFF AND PUSH20 0xFFFFFFFFFFFFFFFFFFFFFFFFFFFFFFFFFFFFFFFF AND DUP2 MSTORE PUSH1 0x20 ADD SWAP1 DUP2 MSTORE PUSH1 0x20 ADD PUSH0 KECCAK256 PUSH1 0x40 MLOAD DUP1 PUSH1 0x60 ADD PUSH1 0x40 MSTORE SWAP1 DUP2 PUSH0 DUP3 ADD PUSH0 SWAP1 SLOAD SWAP1 PUSH2 0x100 EXP SWAP1 DIV PUSH20 0xFFFFFFFFFFFFFFFFFFFFFFFFFFFFFFFFFFFFFFFF AND PUSH20 0xFFFFFFFFFFFFFFFFFFFFFFFFFFFFFFFFFFFFFFFF AND PUSH20 0xFFFFFFFFFFFFFFFFFFFFFFFFFFFFFFFFFFFFFFFF AND DUP2 MSTORE PUSH1 0x20 ADD PUSH1 0x1 DUP3 ADD SLOAD DUP2 MSTORE PUSH1 0x20 ADD PUSH1 0x2 DUP3 ADD SLOAD DUP2 MSTORE POP POP SWAP1 POP SWAP1 JUMP JUMPDEST PUSH0 CALLVALUE GT PUSH2 0x375 JUMPI PUSH1 0x40 MLOAD PUSH32 0x8C379A000000000000000000000000000000000000000000000000000000000 DUP2 MSTORE PUSH1 0x4 ADD PUSH2 0x36C SWAP1 PUSH2 0x93D JUMP JUMPDEST PUSH1 0x40 MLOAD DUP1 SWAP2 SUB SWAP1 REVERT JUMPDEST CALLER PUSH20 0xFFFFFFFFFFFFFFFFFFFFFFFFFFFFFFFFFFFFFFFF AND PUSH32 0x0 PUSH20 0xFFFFFFFFFFFFFFFFFFFFFFFFFFFFFFFFFFFFFFFF AND SUB PUSH2 0x403 JUMPI PUSH1 0x40 MLOAD PUSH32 0x8C379A000000000000000000000000000000000000000000000000000000000 DUP2 MSTORE PUSH1 0x4 ADD PUSH2 0x3FA SWAP1 PUSH2 0x9A5 JUMP JUMPDEST PUSH1 0x40 MLOAD DUP1 SWAP2 SUB SWAP1 REVERT JUMPDEST PUSH0 PUSH2 0x40C PUSH2 0x508 JUMP JUMPDEST SWAP1 POP CALLVALUE DUP2 PUSH1 0x20 ADD DUP2 DUP2 MLOAD PUSH2 0x420 SWAP2 SWAP1 PUSH2 0x9F0 JUMP JUMPDEST SWAP2 POP DUP2 DUP2 MSTORE POP POP TIMESTAMP DUP2 PUSH1 0x40 ADD DUP2 DUP2 MSTORE POP POP CALLVALUE PUSH1 0x1 PUSH0 DUP3 DUP3 SLOAD PUSH2 0x442 SWAP2 SWAP1 PUSH2 0x9F0 JUMP JUMPDEST SWAP3 POP POP DUP2 SWAP1 SSTORE POP DUP1 PUSH0 PUSH0 CALLER PUSH20 0xFFFFFFFFFFFFFFFFFFFFFFFFFFFFFFFFFFFFFFFF AND PUSH20 0xFFFFFFFFFFFFFFFFFFFFFFFFFFFFFFFFFFFFFFFF AND DUP2 MSTORE PUSH1 0x20 ADD SWAP1 DUP2 MSTORE PUSH1 0x20 ADD PUSH0 KECCAK256 PUSH0 DUP3 ADD MLOAD DUP2 PUSH0 ADD PUSH0 PUSH2 0x100 EXP DUP2 SLOAD DUP2 PUSH20 0xFFFFFFFFFFFFFFFFFFFFFFFFFFFFFFFFFFFFFFFF MUL NOT AND SWAP1 DUP4 PUSH20 0xFFFFFFFFFFFFFFFFFFFFFFFFFFFFFFFFFFFFFFFF AND MUL OR SWAP1 SSTORE POP PUSH1 0x20 DUP3 ADD MLOAD DUP2 PUSH1 0x1 ADD SSTORE PUSH1 0x40 DUP3 ADD MLOAD DUP2 PUSH1 0x2 ADD SSTORE SWAP1 POP POP POP JUMP JUMPDEST PUSH32 0x0 DUP2 JUMP JUMPDEST PUSH2 0x510 PUSH2 0x693 JUMP JUMPDEST PUSH0 PUSH0 PUSH0 CALLER PUSH20 0xFFFFFFFFFFFFFFFFFFFFFFFFFFFFFFFFFFFFFFFF AND PUSH20 0xFFFFFFFFFFFFFFFFFFFFFFFFFFFFFFFFFFFFFFFF AND DUP2 MSTORE PUSH1 0x20 ADD SWAP1 DUP2 MSTORE PUSH1 0x20 ADD PUSH0 KECCAK256 PUSH0 ADD PUSH0 SWAP1 SLOAD SWAP1 PUSH2 0x100 EXP SWAP1 DIV PUSH20 0xFFFFFFFFFFFFFFFFFFFFFFFFFFFFFFFFFFFFFFFF AND SWAP1 POP PUSH0 PUSH20 0xFFFFFFFFFFFFFFFFFFFFFFFFFFFFFFFFFFFFFFFF AND DUP2 PUSH20 0xFFFFFFFFFFFFFFFFFFFFFFFFFFFFFFFFFFFFFFFF AND EQ PUSH2 0x65B JUMPI PUSH0 PUSH0 CALLER PUSH20 0xFFFFFFFFFFFFFFFFFFFFFFFFFFFFFFFFFFFFFFFF AND PUSH20 0xFFFFFFFFFFFFFFFFFFFFFFFFFFFFFFFFFFFFFFFF AND DUP2 MSTORE PUSH1 0x20 ADD SWAP1 DUP2 MSTORE PUSH1 0x20 ADD PUSH0 KECCAK256 PUSH1 0x40 MLOAD DUP1 PUSH1 0x60 ADD PUSH1 0x40 MSTORE SWAP1 DUP2 PUSH0 DUP3 ADD PUSH0 SWAP1 SLOAD SWAP1 PUSH2 0x100 EXP SWAP1 DIV PUSH20 0xFFFFFFFFFFFFFFFFFFFFFFFFFFFFFFFFFFFFFFFF AND PUSH20 0xFFFFFFFFFFFFFFFFFFFFFFFFFFFFFFFFFFFFFFFF AND PUSH20 0xFFFFFFFFFFFFFFFFFFFFFFFFFFFFFFFFFFFFFFFF AND DUP2 MSTORE PUSH1 0x20 ADD PUSH1 0x1 DUP3 ADD SLOAD DUP2 MSTORE PUSH1 0x20 ADD PUSH1 0x2 DUP3 ADD SLOAD DUP2 MSTORE POP POP SWAP2 POP POP PUSH2 0x690 JUMP JUMPDEST PUSH1 0x40 MLOAD DUP1 PUSH1 0x60 ADD PUSH1 0x40 MSTORE DUP1 CALLER PUSH20 0xFFFFFFFFFFFFFFFFFFFFFFFFFFFFFFFFFFFFFFFF AND DUP2 MSTORE PUSH1 0x20 ADD PUSH0 DUP2 MSTORE PUSH1 0x20 ADD PUSH0 DUP2 MSTORE POP SWAP2 POP POP JUMPDEST SWAP1 JUMP JUMPDEST PUSH1 0x40 MLOAD DUP1 PUSH1 0x60 ADD PUSH1 0x40 MSTORE DUP1 PUSH0 PUSH20 0xFFFFFFFFFFFFFFFFFFFFFFFFFFFFFFFFFFFFFFFF AND DUP2 MSTORE PUSH1 0x20 ADD PUSH0 DUP2 MSTORE PUSH1 0x20 ADD PUSH0 DUP2 MSTORE POP SWAP1 JUMP JUMPDEST PUSH0 PUSH0 REVERT JUMPDEST PUSH0 PUSH20 0xFFFFFFFFFFFFFFFFFFFFFFFFFFFFFFFFFFFFFFFF DUP3 AND SWAP1 POP SWAP2 SWAP1 POP JUMP JUMPDEST PUSH0 PUSH2 0x6F4 DUP3 PUSH2 0x6CB JUMP JUMPDEST SWAP1 POP SWAP2 SWAP1 POP JUMP JUMPDEST PUSH2 0x704 DUP2 PUSH2 0x6EA JUMP JUMPDEST DUP2 EQ PUSH2 0x70E JUMPI PUSH0 PUSH0 REVERT JUMPDEST POP JUMP JUMPDEST PUSH0 DUP2 CALLDATALOAD SWAP1 POP PUSH2 0x71F DUP2 PUSH2 0x6FB JUMP JUMPDEST SWAP3 SWAP2 POP POP JUMP JUMPDEST PUSH0 PUSH1 0x20 DUP3 DUP5 SUB SLT ISZERO PUSH2 0x73A JUMPI PUSH2 0x739 PUSH2 0x6C7 JUMP JUMPDEST JUMPDEST PUSH0 PUSH2 0x747 DUP5 DUP3 DUP6 ADD PUSH2 0x711 JUMP JUMPDEST SWAP2 POP POP SWAP3 SWAP2 POP POP JUMP JUMPDEST PUSH2 0x759 DUP2 PUSH2 0x6EA JUMP JUMPDEST DUP3 MSTORE POP POP JUMP JUMPDEST PUSH0 DUP2 SWAP1 POP SWAP2 SWAP1 POP JUMP JUMPDEST PUSH2 0x771 DUP2 PUSH2 0x75F JUMP JUMPDEST DUP3 MSTORE POP POP JUMP JUMPDEST PUSH0 PUSH1 0x60 DUP3 ADD SWAP1 POP PUSH2 0x78A PUSH0 DUP4 ADD DUP7 PUSH2 0x750 JUMP JUMPDEST PUSH2 0x797 PUSH1 0x20 DUP4 ADD DUP6 PUSH2 0x768 JUMP JUMPDEST PUSH2 0x7A4 PUSH1 0x40 DUP4 ADD DUP5 PUSH2 0x768 JUMP JUMPDEST SWAP5 SWAP4 POP POP POP POP JUMP JUMPDEST PUSH0 PUSH1 0x20 DUP3 ADD SWAP1 POP PUSH2 0x7BF PUSH0 DUP4 ADD DUP5 PUSH2 0x768 JUMP JUMPDEST SWAP3 SWAP2 POP POP JUMP JUMPDEST PUSH2 0x7CE DUP2 PUSH2 0x6EA JUMP JUMPDEST DUP3 MSTORE POP POP JUMP JUMPDEST PUSH2 0x7DD DUP2 PUSH2 0x75F JUMP JUMPDEST DUP3 MSTORE POP POP JUMP JUMPDEST PUSH1 0x60 DUP3 ADD PUSH0 DUP3 ADD MLOAD PUSH2 0x7F7 PUSH0 DUP6 ADD DUP3 PUSH2 0x7C5 JUMP JUMPDEST POP PUSH1 0x20 DUP3 ADD MLOAD PUSH2 0x80A PUSH1 0x20 DUP6 ADD DUP3 PUSH2 0x7D4 JUMP JUMPDEST POP PUSH1 0x40 DUP3 ADD MLOAD PUSH2 0x81D PUSH1 0x40 DUP6 ADD DUP3 PUSH2 0x7D4 JUMP JUMPDEST POP POP POP POP JUMP JUMPDEST PUSH0 PUSH1 0x60 DUP3 ADD SWAP1 POP PUSH2 0x836 PUSH0 DUP4 ADD DUP5 PUSH2 0x7E3 JUMP JUMPDEST SWAP3 SWAP2 POP POP JUMP JUMPDEST PUSH0 PUSH1 0x20 DUP3 ADD SWAP1 POP PUSH2 0x84F PUSH0 DUP4 ADD DUP5 PUSH2 0x750 JUMP JUMPDEST SWAP3 SWAP2 POP POP JUMP JUMPDEST PUSH0 DUP3 DUP3 MSTORE PUSH1 0x20 DUP3 ADD SWAP1 POP SWAP3 SWAP2 POP POP JUMP JUMPDEST PUSH32 0x4F6E6C792061646D696E2063616E207769746864726177000000000000000000 PUSH0 DUP3 ADD MSTORE POP JUMP JUMPDEST PUSH0 PUSH2 0x899 PUSH1 0x17 DUP4 PUSH2 0x855 JUMP JUMPDEST SWAP2 POP PUSH2 0x8A4 DUP3 PUSH2 0x865 JUMP JUMPDEST PUSH1 0x20 DUP3 ADD SWAP1 POP SWAP2 SWAP1 POP JUMP JUMPDEST PUSH0 PUSH1 0x20 DUP3 ADD SWAP1 POP DUP2 DUP2 SUB PUSH0 DUP4 ADD MSTORE PUSH2 0x8C6 DUP2 PUSH2 0x88D JUMP JUMPDEST SWAP1 POP SWAP2 SWAP1 POP JUMP JUMPDEST PUSH32 0x446F6E6174696F6E20616D6F756E74206D757374206265206772656174657220 PUSH0 DUP3 ADD MSTORE PUSH32 0x7468616E20300000000000000000000000000000000000000000000000000000 PUSH1 0x20 DUP3 ADD MSTORE POP JUMP JUMPDEST PUSH0 PUSH2 0x927 PUSH1 0x26 DUP4 PUSH2 0x855 JUMP JUMPDEST SWAP2 POP PUSH2 0x932 DUP3 PUSH2 0x8CD JUMP JUMPDEST PUSH1 0x40 DUP3 ADD SWAP1 POP SWAP2 SWAP1 POP JUMP JUMPDEST PUSH0 PUSH1 0x20 DUP3 ADD SWAP1 POP DUP2 DUP2 SUB PUSH0 DUP4 ADD MSTORE PUSH2 0x954 DUP2 PUSH2 0x91B JUMP JUMPDEST SWAP1 POP SWAP2 SWAP1 POP JUMP JUMPDEST PUSH32 0x41646D696E2063616E6E6F7420646F6E61746500000000000000000000000000 PUSH0 DUP3 ADD MSTORE POP JUMP JUMPDEST PUSH0 PUSH2 0x98F PUSH1 0x13 DUP4 PUSH2 0x855 JUMP JUMPDEST SWAP2 POP PUSH2 0x99A DUP3 PUSH2 0x95B JUMP JUMPDEST PUSH1 0x20 DUP3 ADD SWAP1 POP SWAP2 SWAP1 POP JUMP JUMPDEST PUSH0 PUSH1 0x20 DUP3 ADD SWAP1 POP DUP2 DUP2 SUB PUSH0 DUP4 ADD MSTORE PUSH2 0x9BC DUP2 PUSH2 0x983 JUMP JUMPDEST SWAP1 POP SWAP2 SWAP1 POP JUMP JUMPDEST PUSH32 0x4E487B7100000000000000000000000000000000000000000000000000000000 PUSH0 MSTORE PUSH1 0x11 PUSH1 0x4 MSTORE PUSH1 0x24 PUSH0 REVERT JUMPDEST PUSH0 PUSH2 0x9FA DUP3 PUSH2 0x75F JUMP JUMPDEST SWAP2 POP PUSH2 0xA05 DUP4 PUSH2 0x75F JUMP JUMPDEST SWAP3 POP DUP3 DUP3 ADD SWAP1 POP DUP1 DUP3 GT ISZERO PUSH2 0xA1D JUMPI PUSH2 0xA1C PUSH2 0x9C3 JUMP JUMPDEST JUMPDEST SWAP3 SWAP2 POP POP JUMP INVALID LOG2 PUSH5 0x6970667358 0x22 SLT KECCAK256 DELEGATECALL EXTCODEHASH SWAP14 0xC9 EQ 0xC0 PUSH31 0xC2D836B424C584A52EBA8A6281B4ADEDA170C9A4407E10C3E464736F6C6343 STOP ADDMOD 0x1E STOP CALLER "
				},
				"gasEstimates": {
					"creation": {
						"codeDepositCost": "529800",
						"executionCost": "infinite",
						"totalCost": "infinite"
					},
					"external": {
						"admin()": "infinite",
						"donate()": "infinite",
						"donations(address)": "infinite",
						"getDonor()": "infinite",
						"totalDonations()": "2447",
						"withdraw()": "infinite"
					},
					"internal": {
						"_getDonor()": "infinite"
					}
				},
				"methodIdentifiers": {
					"admin()": "f851a440",
					"donate()": "ed88c68e",
					"donations(address)": "cc6cb19a",
					"getDonor()": "e0218fb3",
					"totalDonations()": "de2ed893",
					"withdraw()": "3ccfd60b"
				}
			},
			"storageLayout": {
				"storage": [
					{
						"astId": 24,
						"contract": "contracts/DonationBox.sol:DonationBox",
						"label": "donations",
						"offset": 0,
						"slot": "0",
						"type": "t_mapping(t_address,t_struct(Donation)10_storage)"
					},
					{
						"astId": 26,
						"contract": "contracts/DonationBox.sol:DonationBox",
						"label": "totalDonations",
						"offset": 0,
						"slot": "1",
						"type": "t_uint256"
					}
				],
				"types": {
					"t_address": {
						"encoding": "inplace",
						"label": "address",
						"numberOfBytes": "20"
					},
					"t_mapping(t_address,t_struct(Donation)10_storage)": {
						"encoding": "mapping",
						"key": "t_address",
						"label": "mapping(address => struct DonationBox.Donation)",
						"numberOfBytes": "32",
						"value": "t_struct(Donation)10_storage"
					},
					"t_struct(Donation)10_storage": {
						"encoding": "inplace",
						"label": "struct DonationBox.Donation",
						"members": [
							{
								"astId": 5,
								"contract": "contracts/DonationBox.sol:DonationBox",
								"label": "donor",
								"offset": 0,
								"slot": "0",
								"type": "t_address"
							},
							{
								"astId": 7,
								"contract": "contracts/DonationBox.sol:DonationBox",
								"label": "amount",
								"offset": 0,
								"slot": "1",
								"type": "t_uint256"
							},
							{
								"astId": 9,
								"contract": "contracts/DonationBox.sol:DonationBox",
								"label": "donationDate",
								"offset": 0,
								"slot": "2",
								"type": "t_uint256"
							}
						],
						"numberOfBytes": "96"
					},
					"t_uint256": {
						"encoding": "inplace",
						"label": "uint256",
						"numberOfBytes": "32"
					}
				}
			},
			"userdoc": {
				"kind": "user",
				"methods": {},
				"version": 1
			}
		}
	}
}